:040000006F006075B8
:100004000000000000000000680200007002000010
:100014000000000054070000000000000000000081
:100024005407000054070000000000000000000016
:100034005407000000000000540700000000000006
:100044005407000054070000540700005407000040
:100054005407000054070000540700005407000030
:100064005407000054070000540700005407000020
:100074005407000054070000540700005407000010
:100084005407000054070000540700005407000000
:1000940054070000540700005407000054070000F0
:1000A40054070000540700005407000054070000E0
:1000B400563B00005407000054070000540700009A
:1000C40054070000540700005407000054070000C0
:1000D4005407000066390000283A00005407000065
:1000E40054070000540700005407000054070000A0
:1000F4005407000054070000540700005407000090
:1001040000000000540700005407000054070000DA
:10011400BC3A0000540700005407000054070000D4
:10012400540700005407000054070000540700005F
:10013400540700005407000054070000540700004F
:10014400540700005407000054070000540700003F
:10015400540700005407000054070000540700002F
:10016400540700005407000054070000540700001F
:10017400540700005407000054070000540700000F
:1001840054070000540700005407000054070000FF
:1001940054070000540700005407000054070000EF
:1001A400000000000000000000000000000000004B
:0C01B4000000000000000000000000003F
:1001C0003D432A876373C3029377F700BDEFADE524
:1001D000937606FF3D8ABA960CC34CC30CC74CC736
:1001E0004107E36BD7FE11E28280B306C3408A0663
:1001F0009702000096966780A6002307B700A30623
:10020000B7002306B700A305B7002305B700A30472
:10021000B7002304B700A303B7002303B700A3026A
:10022000B7002302B700A301B7002301B700A30062
:10023000B7002300B700828093F5F50F93968500F1
:10024000D58D93960501D58D61B7939627009702BA
:10025000000096968682E78086FA9680C1171D8FE9
:100260003E96E374C3F8A5B7411122C6000801A069
:10027000411122C60008B7E700E03707EFBE1307B9
:100280000708B8C701A0411106C622C400080945E5
:10029000EF009059D520EF30906CF167138507205F
:1002A000EF309078B707002083A78725BE85AD671C
:1002B00013854704EF7020162523AA87BE85AD67F6
:1002C00013854705EF702015AD6713854706EF705E
:1002D0002026EF30501AEF30D036EF307037F5BFB0
:1002E000411106C622C40008B71702409843B71749
:1002F00002401367170098C3B7170240D443B717DB
:1003000002403707FFF0758FD8C3B71702409443F8
:10031000B71702403707F7FE7D17758F98C3B717D9
:1003200002409443B71702403707FCFF7D17758FD3
:1003300098C3B7170240D443B7170240370701FFED
:100340007D17758FD8C3B71702409443B717024083
:10035000370700EC7D17758F98C3B7170240370732
:10036000FF0098C7B717024023A60702C124010067
:10037000B240224441018280797122D600182322A2
:1003800004FE232604FE232004FEA30504FEA30F7F
:1003900004FCB7170240DC43B18B2322F4FE032791
:1003A00044FE91476304F702032744FEA147630814
:1003B000F702832744FE63910722B707002037170F
:1003C0007A001307072023ACE7240DA4B707002009
:1003D00037177A001307072023ACE72401ACB717BF
:1003E0000240D843B7073C00F98F2326F4FEB71725
:1003F0000240D843C167F98F2320F4FE8327C4FE4F
:10040000C98389072326F4FE0327C4FE89476315A1
:10041000F700C9472326F4FE0327C4FEBD4763182F
:10042000F700B5472326F4FE8547A305F4FE03270E
:10043000C4FEC1476315F700BD472326F4FE03271A
:10044000C4FEC5476315F700C1472326F4FE832782
:1004500004FEB1E3B7470240938707809C43C18BFA
:1004600091CF0327C4FEB7177A009387072033077D
:10047000F702B707002023ACE7243DAA0327C4FEF8
:10048000B7173D00938707903307F702B70700209F
:1004900023ACE72415A2B7170240D857C167F98FDC
:1004A000EDC3B7170240DC579183BD8B8507371723
:1004B0007A00130707203357F702B707002023AC51
:1004C000E724B7170240DC57A18393F7F70FBD8BE2
:1004D000A30FF4FC8347F4FD99EFB707002003A7AF
:1004E0008725BA878A07BA9713D71700B70700205E
:1004F00023ACE724BDA00347F4FD85476312F70250
:10050000B707002003A78725BA878607BA978E0703
:10051000BA9713D71700B707002023ACE72491A0A0
:100520000347F4FDBD476310F702B707002003A798
:100530008725BA878A07BA978A073E87B7070020B8
:1005400023ACE72439A88347F4FD89073E87B70722
:10055000002083A787253307F702B707002023ACC5
:10056000E724B707002003A78725B7170240DC5709
:10057000BD8B85073357F702B707002023ACE7246C
:1005800005A0B7170240DC57BD8B850737177A00E7
:10059000130707203357F702B707002023ACE724DF
:1005A000B707002003A787258327C4FE3307F70278
:1005B000B707002023ACE7240347B4FE8547631642
:1005C000F702B707002083A7872513D71700B707BF
:1005D000002023ACE72411A8B707002037177A00C2
:1005E0001307072023ACE72411A00100B71702402E
:1005F000DC43918313F7F700B707002093870700C8
:10060000BA979C2393F7F70F2322F4FEB707002035
:1006100003A78725832744FE3357F700B707002039
:1006200023ACE7240100325445618280411106C6A3
:1006300022C4000831200100B240224441018280DE
:10064000011122CE0010232604FE232404FEB71736
:1006500002409443B71702404167558F98C3B717BC
:1006600002409843B7070200F98F2324F4FE832742
:10067000C4FE85072326F4FE832784FE91E7032723
:10068000C4FE8567E31DF7FCB71702409843B70720
:100690000200F98F89C785472324F4FE19A023247B
:1006A00004FE032784FE85476312F70A37170240CA
:1006B000B71702405843D8C337170240B717024054
:1006C0005843D8C3B7170240D843B717024013673F
:1006D0000740D8C3B7170240D443B71702403707C3
:1006E000C1FF7D17758FD8C3B7170240D443B71722
:1006F000024037072900558FD8C3B71702409443EB
:10070000B717024037070001558F98C30100B7178C
:1007100002409843B7070002F98FF5DBB717024094
:10072000D843B7170240719BD8C3B7170240D843CC
:10073000B717024013672700D8C30100B71702405C
:10074000DC4313F7C700A147E31AF7FE0100724428
:100750000561828001A097010020938121301781DB
:1007600000201301218A17B500001305656E970557
:100770000020938525891386818263FAC500832230
:10078000050023A0550011059105E3EAC5FE138578
:100790008182938581916377B5002320050011053F
:1007A000E36DB5FEFD42739002BCAD427390428092
:1007B000B7620000938282087390023097020000B3
:1007C0009382828493E2320073905230EFF05FB1F3
:1007D00097020000938262AB739012347300203052
:1007E000411122C60008B7F7FF1F938747709C434B
:1007F0003E85324441018280397122DE8000232609
:10080000A4FC2324B4FC232604FE232004FE23247A
:1008100004FE232E04FC232204FE232C04FC832745
:1008200084FC9C47BD8B2326F4FE832784FC9C47D5
:10083000C18B89CB832784FCDC430327C4FED98F7B
:100840002326F4FE832784FC9E2393F7F70FE9CF3A
:100850008327C4FC9C432322F4FE232404FE5DA8CA
:10086000832784FE0547B317F700232EF4FC832764
:1008700084FC9E233E878327C4FDF98F2320F4FE4A
:10088000032704FE8327C4FD6311F708832784FE32
:100890008A07232EF4FC8327C4FD3D47B317F700D6
:1008A000232CF4FC832784FD93C7F7FF032744FE22
:1008B000F98F2322F4FE8327C4FD0327C4FEB31758
:1008C000F700032744FED98F2322F4FE832784FCFC
:1008D000984793078002631BF700832784FE054730
:1008E0003317F7008327C4FCD8CB05A0832784FCEB
:1008F000984793078004631AF700832784FE05470F
:100900003317F7008327C4FC98CB832784FE850721
:100910002324F4FE032784FE9D47E3F3E7F48327B3
:10092000C4FC032744FE98C3832784FC9A239307BF
:10093000F00F63F0E70E8327C4FCDC432322F4FEB0
:10094000232404FE6DA8832784FEA1070547B3175F
:10095000F700232EF4FC832784FC9E233E87832705
:10096000C4FDF98F2320F4FE032704FE8327C4FD72
:100970006312F708832784FE8A07232EF4FC83275B
:10098000C4FD3D47B317F700232CF4FC832784FDF7
:1009900093C7F7FF032744FEF98F2322F4FE832732
:1009A000C4FD0327C4FEB317F700032744FED98F05
:1009B0002322F4FE832784FC984793078002631B5D
:1009C000F700832784FEA10705473317F700832725
:1009D000C4FCD8CB832784FC984793078004631B0F
:1009E000F700832784FEA10705473317F700832705
:1009F000C4FC98CB832784FE85072324F4FE0327B9
:100A000084FE9D47E3F1E7F48327C4FC032744FEFB
:100A1000D8C30100725421618280797122D60018F6
:100A2000232EA4FCAE87231DF4FCA30704FE83271A
:100A3000C4FD98478357A4FDF98F89C78547A3074D
:100A4000F4FE19A0A30704FE8347F4FE3E8532544A
:100A500045618280011122CE00102326A4FEAE87BC
:100A60002315F4FE0357A4FE8327C4FE98CB010090
:100A7000724405618280011122CE00102326A4FE5B
:100A8000AE872315F4FE0357A4FE8327C4FED8CBFC
:100A90000100724405618280011122CE00102326DC
:100AA000A4FEAE872322C4FE2315F4FE832744FE52
:100AB00099C70357A4FE8327C4FE98CB31A00357E0
:100AC000A4FE8327C4FED8CB010072440561828056
:100AD000397106DE22DC80002326A4FC2324B4FC2A
:100AE000231704FE231604FE91472315F4FEB717BF
:100AF0007A00938707202322F4FE8327C4FCDE2399
:100B00002317F4FE8357E4FE93F707FC2317F4FE44
:100B1000930704FD3E85F52B832784FD2322F4FEF5
:100B2000032744FEB7470F0093870724B357F70204
:100B30002316F4FE0357C4FE9307B00363F6E700E1
:100B40009307C0032316F4FE0357E4FE8357C4FE45
:100B5000D98F2317F4FE8327C4FC0357E4FEDAA3DE
:100B60008327C4FC9E23C207C183F99B1397070107
:100B700041838327C4FC9AA3231704FE832784FCA4
:100B80009843E1679387076A63E5E704832784FC5A
:100B90009C438607032744FEB357F7022315F4FE50
:100BA0000357A4FE8D4763E5E70091472315F4FE44
:100BB0000357E4FE8357A4FED98F2317F4FE83570F
:100BC000C4FE85071397070141838327C4FC9AB3AA
:100BD00065A0832784FCFA23B167FD17631FF70024
:100BE000832784FC9843BA878607BA97032744FE75
:100BF000B357F7022315F4FE2DA0832784FC9843F6
:100C0000BA878607BA978E07BA97032744FEB35769
:100C1000F7022315F4FE0357A4FE9167D98F23151D
:100C2000F4FE0357A4FE8567FD17F98F99E78357F4
:100C3000A4FE93E717002315F4FE0357A4FE835781
:100C4000E4FED98F139707014183E177D98F2317EA
:100C5000F4FE0357C4FE9307C0123307F70293074D
:100C6000803EB347F702C207C18385071397070188
:100C700041838327C4FC9AB38327C4FC0357E4FE53
:100C8000DAAF8327C4FC9E23C207C18393E7170012
:100C90001397070141838327C4FC9AA38327C4FCCD
:100CA0009E232317F4FE8357E4FE93F757BF2317C1
:100CB000F4FE832784FCDA23832784FCBE27D98FA4
:100CC0001397070141838357E4FED98F2317F4FE5E
:100CD0008327C4FC0357E4FE9AA3832784FCDA2706
:100CE000832784FC9E27D98F13970701418383278D
:100CF000C4FC9AA70100F250625421618280011164
:100D000022CE00102326A4FE2324B4FE832784FED3
:100D100099CF8327C4FE9E23C207C18393E71700A0
:100D20001397070141838327C4FE9AA329A8832729
:100D3000C4FE9E23C207C183F99B13970701418319
:100D40008327C4FE9AA301007244056182800111C9
:100D500022CE00102326A4FE2324B4FE832784FE83
:100D600099CF8327C4FE9E23C207C18393E7071050
:100D70001397070141838327C4FE9AA331A88327D1
:100D8000C4FE9E23C207C18393F7F7EF13970701B1
:100D900041838327C4FE9AA30100724405618280C7
:100DA000011122CE00102326A4FE2324B4FE8327A3
:100DB00084FE99CF8327C4FE9E23C207C18393E795
:100DC00007201397070141838327C4FE9AA331A804
:100DD0008327C4FE9E23C207C18393F7F7DF1397CF
:100DE000070141838327C4FE9AA301007244056171
:100DF0008280011122CE00102326A4FE2324B4FEFB
:100E0000832784FE99CF8327C4FE9E23C207C18314
:100E100093E707401397070141838327C4FE9AA3F2
:100E200031A88327C4FE9E23C207C18393F7F7BF6F
:100E30001397070141838327C4FE9AA301007244DC
:100E400005618280011122CE00102326A4FEAE8708
:100E5000A305F4FE8347B4FE13970701418383275C
:100E6000C4FE9AAB0100724405618280011122CE5A
:100E700000102326A4FE8327C4FE9E2BC207C18335
:100E800093F7F70F3E85724405618280011122CEEF
:100E900000102326A4FEAE873287A305F4FEBA878E
:100EA0002305F4FE8347A4FE81CB8347B4FE93E77A
:100EB0001700A305F4FE31A08347B4FEF99BA305F8
:100EC000F4FE8347B4FE1397070141838327C4FED2
:100ED0009AAB0100724405618280797122D60018B4
:100EE000232EA4FC232CB4FC232404FE232204FE82
:100EF000232004FE232604FE8327C4FDDE2BC20725
:100F0000C1832322F4FE8327C4FD9E2FC207C18321
:100F10002320F4FE832704FEC2072320F4FE0327C8
:100F200044FE832704FE5D8FB7070001FD17F98F8C
:100F30002324F4FE032784FE832784FDF98F0327EF
:100F400084FD6316F70085472326F4FE19A02326A7
:100F500004FE8327C4FE3E85325445618280797148
:100F600022D60018232EA4FC232CB4FC232604FE36
:100F7000232404FE232204FE8327C4FD2322F4FE3F
:100F8000832784FDF1832324F4FE032784FDB70720
:100F90000001FD17F98F232CF4FC832784FE99C7E9
:100FA000832744FED1072322F4FE19A8832784FD5A
:100FB000C183232CF4FC832744FEE1072322F4FEA3
:100FC000832744FE9843832784FDF98F89C785478B
:100FD0002326F4FE19A0232604FE8327C4FE3E85A3
:100FE000325445618280797122D60018232EA4FCE8
:100FF000232CB4FC232604FE032784FDB70700013D
:10100000FD17F98F2326F4FE8327C4FEC207C18390
:1010100093C7F7FF1397070141838327C4FDDAAB1A
:101020000100325445618280011122CE0010232636
:10103000A4FE0327C4FE23A4E182010072440561DB
:101040008280797122D60018232EA4FC03A7818206
:101050008947631BF7048327C4FD98338D4763E5F5
:10106000E7048327C4FD9C23BE868327C4FD9C33ED
:101070009A071397870161878327C4FDBC239607CE
:10108000E207E187D98FE207E18793F7F70F23267D
:10109000D4FEA305F4FE37E700E08327C4FEBA9729
:1010A0000347B4FE2380E7408327C4FDDC439DC78C
:1010B0008327C4FD9C232322F4FE832744FEFD8B5B
:1010C0000547B316F70037E700E0832744FE958312
:1010D000938707048A07BA9794C305A88327C4FD9A
:1010E0009C232320F4FE832704FEFD8B0547B316C3
:1010F000F70037E700E0832704FE95839387070610
:101100008A07BA9794C30F1000000100325445615A
:101110008280397122DE80002326A4FC232204FE73
:10112000232604FE232004FE232E04FCA30504FE34
:10113000A30D04FCB7170240DC43B18B2322F4FE5D
:10114000032744FE91476303F702032744FEA147A8
:101150006306F702832744FE639D07208327C4FCB0
:1011600037177A001307072098C329AC8327C4FCDC
:1011700037177A001307072098C329A4B71702402E
:10118000D843B7073C00F98F2326F4FEB717024077
:10119000D843C167F98F2320F4FE8327C4FEC98397
:1011A00089072326F4FEB7F7FF1F9387C77098437C
:1011B0009167F98F91EB0327C4FEC5476319F704C4
:1011C000C9472326F4FEA1A00327C4FE894763155F
:1011D000F700C9472326F4FE0327C4FEBD47631862
:1011E000F700B5472326F4FE8547A305F4FE032741
:1011F000C4FEC1476315F700BD472326F4FE03274D
:10120000C4FEC5476315F700C1472326F4FE8327B4
:1012100004FEA1E3B7470240938707809C43C18B3C
:1012200089CF0327C4FEB7177A00938707203307B7
:10123000F7028327C4FC98C339AA0327C4FEB71753
:101240003D00938707903307F7028327C4FC98C3B8
:1012500019A2B7170240D857C167F98FE9C7B71766
:101260000240DC579183BD8B850737177A0013073F
:1012700007203357F7028327C4FC98C3B7170240EF
:10128000DC57A18393F7F70FBD8BA30DF4FC8347C5
:10129000B4FD89EF8327C4FC9843BA878A07BA97BD
:1012A00013D717008327C4FC98C385A00347B4FD58
:1012B00085476310F7028327C4FC9843BA878607E3
:1012C000BA978E07BA9713D717008327C4FC98C321
:1012D0002DA80347B4FDBD47631EF7008327C4FC58
:1012E0009843BA878A07BA978A073E878327C4FC40
:1012F00098C321A88327C4FC9C430347B4FD090776
:101300003387E7028327C4FC98C38327C4FC984330
:10131000B7170240DC57BD8B85073357F702832789
:10132000C4FC98C339A8B7170240DC57BD8B8507AA
:1013300037177A00130707203357F7028327C4FCB7
:1013400098C38327C4FC98438327C4FE3307F7025E
:101350008327C4FC98C30347B4FE85476313F70291
:101360008327C4FC9C4313D717008327C4FC98C36E
:1013700009A88327C4FC37177A001307072098C3EE
:1013800011A00100B7170240DC4393F7070F232297
:10139000F4FE832744FE91832322F4FEB707002046
:1013A00013870701832744FEBA979C2393F7F70F0F
:1013B000232EF4FC8327C4FC98438327C4FD3357B2
:1013C000F7008327C4FCD8C3B7170240DC4393F768
:1013D00007702322F4FE832744FEA1832322F4FE18
:1013E000B707002013870701832744FEBA979C2381
:1013F00093F7F70F232EF4FC8327C4FCD8438327ED
:10140000C4FD3357F7008327C4FC98C7B7170240C1
:10141000D843916793870780F98F2322F4FE8327AF
:1014200044FEAD832322F4FEB70700201387070193
:10143000832744FEBA979C2393F7F70F232EF4FCDF
:101440008327C4FCD8438327C4FD3357F700832781
:10145000C4FCD8C7B7170240D843B167F98F23221D
:10146000F4FE832744FEB9832322F4FEB70700204D
:101470001387C725832744FEBA979C2393F7F70F5A
:10148000232EF4FC8327C4FCD8478327C4FD33579D
:10149000F7028327C4FC98CB01007254216182803B
:1014A000011122CE00102326A4FE2324B4FE83279C
:1014B00084FE99CBB7170240944FB7170240032719
:1014C000C4FE558F98CF21A8B7170240944F8327A9
:1014D000C4FE13C7F7FFB7170240758F98CF0100FE
:1014E000724405618280011122CE00102326A4FEE1
:1014F0002324B4FE832784FE99CBB7170240D44F30
:10150000B71702400327C4FE558FD8CF21A8B717BD
:101510000240D44F8327C4FE13C7F7FFB71702401A
:10152000758FD8CF0100724405618280797122D60F
:101530000018232EA4FC232CB4FC231704FE8327BD
:10154000C4FD9E232317F4FE0327C4FDB7370140D3
:10155000938707C06306F7060327C4FDB70700405B
:101560006300F7060327C4FDB707004093870740D1
:101570006308F7040327C4FDB7170040938707806B
:101580006300F7040327C4FDB7170040938707C023
:101590006308F7020327C4FDB7370140938707406C
:1015A0006300F7020327C4FDB7570140938707C0C4
:1015B0006308F7000327C4FDB75701406310F70223
:1015C0008357E4FE93F7F7F82317F4FE832784FD8F
:1015D000BA238357E4FED98F2317F4FE0327C4FDF3
:1015E000B71700406308F7020327C4FDB717004090
:1015F000938707406300F7028357E4FE93F7F7CF22
:101600002317F4FE832784FDFA238357E4FED98F42
:101610002317F4FE8327C4FD0357E4FE9AA3832710
:1016200084FDDA238327C4FDDAB7832784FD9A2358
:101630008327C4FD9AB70327C4FDB73701409387BA
:1016400007C06308F7020327C4FDB737014093873B
:1016500007406300F7020327C4FDB7570140938793
:1016600007C06308F7000327C4FDB7570140631B99
:10167000F700832784FD9C27139707014183832765
:10168000C4FD9ABB8327C4FD0547DAAB0100325481
:1016900045618280011122CE00102326A4FE23245E
:1016A000B4FE832784FE99CF8327C4FE9E23C207FE
:1016B000C18393E717001397070141838327C4FE73
:1016C0009AA329A88327C4FE9E23C207C183F99B3E
:1016D0001397070141838327C4FE9AA30100724434
:1016E00005618280011122CE00102326A4FEAE8760
:1016F0002322C4FE2315F4FE832744FE8DC38327D3
:10170000C4FEDE271397070141838357A4FED98FB8
:101710001397070141838327C4FEDAA725A08327F7
:10172000C4FEDE271397070141838357A4FE93C7A6
:10173000F7FFC207C183F98F1397070141838327FE
:10174000C4FEDAA70100724405618280797122D655
:101750000018232EA4FCAE87231DF4FC232604FED0
:10176000231504FE231404FE8327C4FD9E2B139728
:10177000070141838357A4FDF98F2315F4FE8327C6
:10178000C4FDDE271397070141838357A4FDF98F1A
:101790002314F4FE8357A4FE81CB835784FE89C7AC
:1017A00085472326F4FE19A0232604FE8327C4FEC2
:1017B0003E85325445618280011122CE00102326DD
:1017C000A4FEAE872315F4FE8357A4FE93C7F7FF4C
:1017D0001397070141838327C4FE9AAB010072442B
:1017E000056182805D7186C6A2C48008232EA4FA9A
:1017F000232CB4FA232404FE232604FE232204FE11
:10180000232004FE232E04FC8327C4FB232EF4FC98
:101810008327C4FB9E2BC207C1832324F4FE032726
:1018200084FEB567FD17F98F2324F4FE832784FB1C
:10183000FE233E87832784FED98F2324F4FE83274B
:1018400084FE1397070141838327C4FB9AAB832748
:10185000C4FBDE27C207C1832324F4FE032784FED2
:10186000BD679387379FF98F2324F4FE832784FB7A
:10187000DA23832784FB9E27D98F1397070141839F
:10188000832784FBBE27D98FC207C1833E87832766
:1018900084FED98F2324F4FE832784FE1397070147
:1018A00041838327C4FBDAA78327C4FBDE2BC2074F
:1018B000C1832324F4FE032784FEC1679387F7CFF7
:1018C000F98F2324F4FE832784FBDE273E878327BA
:1018D00084FED98F2324F4FE832784FE1397070107
:1018E00041838327C4FBDAAB930784FC3E85EFF08A
:1018F0005F820327C4FDB7470140938707806317C2
:10190000F700832744FD2326F4FE29A0832704FD46
:101910002326F4FE0327C4FEBA878607BA978E07EC
:101920003E97832784FB9C438A07B357F702232201
:10193000F4FE032744FE93074006B357F7029207CD
:101940002324F4FE832784FE13D747009307400621
:10195000B307F702032744FEB307F7402320F4FE42
:10196000832704FE92071387270393074006B35784
:10197000F702BD8B032784FED98F2324F4FE83272F
:1019800084FE1397070141838327C4FB9AA70100B4
:10199000B640264461618280011122CE00102326C8
:1019A000A4FE2324B4FE832784FE85C38327C4FEBC
:1019B000DE271397070141838967D98F13970701A2
:1019C00041838327C4FEDAA705A08327C4FEDE2750
:1019D000139707014183F977FD17F98F13970701D3
:1019E00041838327C4FEDAA7010072440561828027
:1019F000797122D60018232EA4FCAE87232AC4FCBA
:101A0000231DF4FC232404FE232204FE232004FED1
:101A1000232604FE8327C4FD2326F4FE8357A4FD5A
:101A200093F7F70F958393F7F70F2324F4FE83576B
:101A3000A4FDFD8B2322F4FE832744FE0547B31744
:101A4000F7002320F4FE032784FE85476318F70080
:101A50008327C4FEB1072326F4FE0DA0032784FECE
:101A600089476318F7008327C4FEC1072326F4FEC5
:101A700031A08327C4FED1072326F4FE832744FD2B
:101A800099CB8327C4FE94438327C4FE032704FE17
:101A9000558F98C321A88327C4FE9443832704FE4F
:101AA00013C7F7FF8327C4FE758F98C30100325414
:101AB00045618280011122CE00102326A4FEAE874C
:101AC0002315F4FE8357A4FE93F7F71F139707011E
:101AD00041838327C4FEDAA301007244056182803A
:101AE000011122CE00102326A4FE8327C4FEDE238C
:101AF000C207C18393F7F71FC207C1833E857244B3
:101B000005618280797122D60018232EA4FCAE874D
:101B1000231DF4FC232604FE8327C4FD9E23139774
:101B2000070141838357A4FDF98FC207C18389C789
:101B300085472326F4FE19A0232604FE8327C4FE2E
:101B40003E85325445618280011122CE0010232649
:101B5000A4FEAE872315F4FE8357A4FE93C7F7FFB8
:101B60001397070141838327C4FE9AA3010072449F
:101B700005618280797122D60018232EA4FCAE87DD
:101B8000231DF4FC232204FE232604FE232004FE4E
:101B9000232404FE8357A4FD93F7F70F958393F74F
:101BA000F70F2320F4FE8357A4FDFD8B2326F4FEBC
:101BB0008327C4FE0547B317F7002326F4FE032747
:101BC00004FE8547631EF7008327C4FDDE27C20796
:101BD000C1833E878327C4FEF98F2326F4FE2DA8F8
:101BE000032704FE8947631EF7008327C4FD9E2B4D
:101BF000C207C1833E878327C4FEF98F2326F4FEE4
:101C000021A88327C4FDDE2BC207C1833E8783271B
:101C1000C4FEF98F2326F4FE8357A4FDA183C207D7
:101C2000C1832322F4FE832744FE0547B317F70040
:101C30002322F4FE8327C4FD9E23C207C1833E876F
:101C4000832744FEF98F2322F4FE8327C4FE81CB31
:101C5000832744FE89C785472324F4FE19A0232443
:101C600004FE832784FE3E8532544561828079716B
:101C700022D60018232EA4FCAE87231DF4FC2317C4
:101C800004FE231604FE8357A4FDA1832317F4FE4C
:101C90008357E4FE0547B317F7002316F4FE835776
:101CA000C4FE93C7F7FF1397070141838327C4FD41
:101CB0009AA30100325445618280011106CE22CCE4
:101CC0000010AD679385C70737550040EF10707659
:101CD0002945EF20204DAD67938587083755004093
:101CE000EF1030752945EF20E04BAD6793858709EC
:101CF00037550040EF10F0732945EF20A04AAD673B
:101D00009385070B37550040EF10B072130540065E
:101D1000EF20404903A701822322E4FE938701823A
:101D2000DC432324F4FE232604FE2DA08327C4FED7
:101D3000130704FFBA9783C747FFBE853755004096
:101D4000EF10306B2945EF20E0458327C4FE85075F
:101D50002326F4FE0327C4FE9D47E3F9E7FCE9458B
:101D600037550040EF10F0682945EF20A0430100EF
:101D7000F240624405618280011106CE22CC00103F
:101D800085452145EFF0CFF1C1472326F4FE8D476D
:101D90002324F4FE930700402312F4FE930744FE2D
:101DA000BE85B7170140138507C0EFE0FFA4856724
:101DB000938707802312F4FE930744FEBE85B7176E
:101DC0000140138507C0EFE03FA305468567938573
:101DD0000780B7170140138507C0EFE0FFCB05462A
:101DE00093050040B7170140138507C0EFE0DFCA35
:101DF0000100F240624405618280411106C622C49E
:101E00000008054693050040B7170140138507C039
:101E1000EFE09FC80546856793850780B7170140A7
:101E2000138507C0EFE05FC7014693050040B71771
:101E30000140138507C0EFE03FC6014685679385E3
:101E40000780B7170140138507C0EFE0FFC401000A
:101E5000B240224441018280411106C622C40008DA
:101E6000014693050040B7170140138507C0EFE016
:101E7000BFC20546856793850780B7170140138564
:101E800007C0EFE07FC1054693050040B71701404A
:101E9000138507C0EFE05FC00100B240224441015A
:101EA0008280797106D622D40018AA87A30FF4FC89
:101EB000A30704FE85A00347F4FD8347F4FE9306C1
:101EC0000008B3D7F640F98FB337F00093F7F70F58
:101ED0003E8693050040B7170140138507C0EFE029
:101EE000BFBB0546856793850780B71701401385FB
:101EF00007C0EFE07FBA0146856793850780B71773
:101F00000140138507C0EFE03FB98347F4FE850722
:101F1000A307F4FE0347F4FE9D47E3FEE7F80546FA
:101F2000856793850780B7170140138507C0EFE0E9
:101F3000BFB60146856793850780B71701401385B3
:101F400007C0EFE07FB50100B250225445618280A6
:101F5000011106CE22CC0010AA87A307F4FE713D22
:101F6000130580073D3F01452D3F8347F4FE3E8525
:101F70000D3FDD350100F2406244056182800111B0
:101F800006CE22CC0010AA87A307F4FEBD351305A8
:101F90008007013F1305000429378347F4FE3E857F
:101FA00009375D3D0100F240624405618280011104
:101FB00006CE22CC0010AA872E87A307F4FEBA878C
:101FC0002307F4FE8347F4FE93E707FB93F7F70F2D
:101FD0003E85BD3F8347E4FE918393F7F70F93E778
:101FE000070193F7F70F3E85A5378347E4FEBD8BC6
:101FF00093F7F70F3E85A93F0100F2406244056167
:102000008280011106CE22CC0010230704FE0DA809
:102010008347E4FE81453E85593FA30704FE01A89E
:102020000145B13F8347F4FE8507A307F4FE83070C
:10203000F4FEE3D707FE8347E4FE85072307F4FE9B
:102040000347E4FE9D47E3F5E7FC0100F2406244EC
:1020500005618280797106D622D40018AA87AE86DF
:102060003287A30FF4FCB687230FF4FCBA87A30EC4
:10207000F4FC8347F4FD6384070E0347F4FD9147A6
:1020800063EFE70C8347E4FDE9CF0347E4FDC14775
:1020900063E9E70C8347F4FD9387F70793F7F70F9E
:1020A000860713F7F70F8347E4FDFD0793F7F70F54
:1020B0008E0793F7F70FBE853A85D53DA30704FE3B
:1020C0002DA08307D4FD938607FE8347F4FE2D677A
:1020D00092061307071C3697BA979C233E85453511
:1020E0008347F4FE8507A307F4FE0347F4FE9D47EC
:1020F000E3F9E7FC8347F4FD9387F70793F7F70FBE
:10210000860793F7F70F850713F7F70F8347E4FD6B
:10211000FD0793F7F70F8E0793F7F70FBE853A8504
:102120007935A30704FE35A08307D4FD938607FE07
:102130008347F4FEA1072D6792061307071C369705
:10214000BA979C233E85253D8347F4FE8507A30768
:10215000F4FE0347F4FE9D47E3F8E7FC21A00100ED
:1021600011A00100B250225445618280797106D6D7
:1021700022D40018AA872E87232CC4FCA30FF4FCBA
:10218000BA87230FF4FCA30704FE15A80347E4FD58
:102190008347F4FEBA9793F6F70F8347F4FE0327BD
:1021A00084FDBA97038707008347F4FD3A86B68516
:1021B0003E854D358347F4FE8507A307F4FE83472C
:1021C000F4FE032784FDBA9783870700E1F301003B
:1021D000B250225445618280011106CE22CC0010FB
:1021E000232604FE25A0232404FE31A0832784FE99
:1021F00085072324F4FE032784FE9307703EE3F74C
:10220000E7FE8327C4FE85072326F4FE0327C4FECA
:102210009307703EE3F9E7FC85361305E00A0D3BB2
:102220001305500D3533130500081D331305800ABF
:1022300005331305F003293B1305300D113B014510
:10224000013B1305000429331305100A113313054C
:10225000800CFD391305A00DE5394945D539130525
:102260001008FD311305F00CE5311305900DCD314B
:102270001305100FF1391305B00DD93913050003FB
:10228000C1391305400AE9311305600AD13113053C
:10229000D0087D3951456D391305F00A553995330C
:1022A0000100F240624405618280397106DE22DC61
:1022B00080002326A4FC2324B4FCB287A303F4FCEF
:1022C0000325C4FCEF40404EAA872E881305C4FDA9
:1022D0003E87C287AD661386860CC145EF50002647
:1022E000A30704FE2DA08347F4FE130704FFBA974B
:1022F0008386C7FE8347F4FE032784FCBA9713F74F
:10230000F60F98A38347F4FE8507A307F4FE8347DF
:10231000F4FE130704FFBA978387C7FE81CB0347F8
:10232000F4FE834774FCFD17E34FF7FA8347F4FE8E
:10233000032784FCBA97238007000100F2506254FF
:1023400021618280411106C622C4000883C7C1856D
:1023500093F7F70F1947636CF70A13972700AD67D8
:102360009387077BBA979C438287B707002003A710
:10237000070251469385C1883A85053FB70700207B
:1023800003A7C70251469385018A3A85393F238EB8
:102390000184E528ADA8238E0184BD288DA8B70748
:1023A000002093870702D84351469385C1883A8518
:1023B000ED3DB70700209387C702D8435146938568
:1023C000018A3A85DD35238E0184C12089A0238EC0
:1023D000018499202DA8B70700209387070298470A
:1023E00051469385C1883A85C935B7070020938740
:1023F000C702984751469385018A3A857D35238ED9
:102400000184612029A0238E01843920010001006C
:10241000B240224441018280011106CE22CC00103C
:10242000232604FEB9A0010093050008B747004029
:1024300013850740EFF00FEDAA87FDD71387018AB8
:102440008327C4FEBA979C23C207C183BE85B747C2
:10245000004013850740EFF0EFE51387018A8327DB
:10246000C4FEBA979C2381CF8327C4FE8507232609
:10247000F4FE0327C4FECD47E3D7E7FA11A001001D
:102480000100F240624405618280011106CE22CC37
:102490000010232604FEB9A0010093050008B747E9
:1024A000004013850740EFF0EFE5AA87FDD71387BB
:1024B000C1888327C4FEBA979C23C207C183BE8507
:1024C000B747004013850740EFF0CFDE1387C18880
:1024D0008327C4FEBA979C2381CF8327C4FE850738
:1024E0002326F4FE0327C4FECD47E3D7E7FA11A065
:1024F00001000100F240624405618280797106D6D4
:1025000022D40018AA87A30FF4FC8347F4FD130715
:1025100044FEBE86AD671386070D95453A85EF509C
:10252000E001930744FE2326F4FE1DA08327C4FE8A
:102530008387070093F7F70FBE85B75700401385D1
:1025400007C0EF10006B8327C4FE85072326F4FE27
:102550008327C4FE83870700F1FB8145B7570040FE
:10256000138507C0EF10E0680100B25022544561A6
:102570008280011122CE0010232604FE35A00327FD
:10258000C4FE0E0793874187BA9723A007008327CD
:10259000C4FE138741878E07BA97238207008327DB
:1025A000C4FE85072326F4FE0327C4FE8947E3D82B
:1025B000E7FC0100724405618280797106D622D45D
:1025C0000018EF108061AA862E8783A5018303A6D9
:1025D0004183B387B6403E8533B5A6003308C74074
:1025E0003307A8403A88428709EB428763190726D8
:1025F0003E879307301F63F4E726EF10005EAA873B
:102600002E8823A8F18223AA018383C7A18599C3B9
:102610008D4711A085472303F4FEA30704FE23245E
:1026200004FE45AA37070020832784FE1307070509
:102630009207BA97DC472320F4FEB707002083A750
:102640000726232EF4FC032784FE0E079387418779
:10265000BA979C4305476384E70E89C7094763829D
:10266000E70415AA0327C4FDB7070080B98FBE850C
:10267000032504FEEF30D00BAA8763C3070021AA0D
:10268000032784FE0E0793874187BA97094798C3AB
:10269000832784FE138741878E07BA970547D8A3FF
:1026A000DDA80327C4FDB7070080B98FBE850325C9
:1026B00004FEEF30F007AA8763DA0704832784FE5D
:1026C000138741878E07BA97DC23850713F7F70F27
:1026D000832784FE938641878E07B697D8A38327E6
:1026E00084FE138741878E07BA97D823B707002047
:1026F00093870726DC23636FF708032784FE0E0702
:1027000093874187BA97054798C369A0832784FEBA
:10271000138741878E07BA97DC23ADCF832784FECA
:10272000138741878E07BA9723820700032784FE09
:102730000E0793874187BA9723A00700A1A8032714
:10274000C4FDB7070080B98FBE85032504FEEF30B6
:10275000C075AA8763C30702832784FE1387418756
:102760008E07BA9723820700032784FE0E079387FC
:102770004187BA9723A0070039A8B707002093879D
:102780000726D823832784FE938641878E07B69732
:10279000D8A311A00100032784FE0E079387418769
:1027A000BA97984385476311F702832784FE05474C
:1027B000B317F7001397870161878307F4FED98F5A
:1027C000E207E187A307F4FE832784FE850723241D
:1027D000F4FE834764FE032784FEE345F7E4A30386
:1027E00004FE034764FE8547631AF7008347F4FE3F
:1027F000858BB1CF8547A303F4FE91A88347F4FEF0
:102800001D476366F70413972700AD679387C77C5E
:10281000BA979C4382878547A303F4FE0DA8894796
:10282000A303F4FE2DA08D47A303F4FE0DA099474A
:10283000A303F4FE29A89547A303F4FE09A8914732
:10284000A303F4FE29A09D47A303F4FE01008347E0
:1028500074FE99C7834774FE3E854D3111A0010077
:10286000B250225445618280411106C622C400083C
:1028700003C7C1828547631DF704EF100036AA869F
:102880002E8783A5818303A6C183B387B6403E8587
:1028900033B5A6003308C7403307A8403A884287BB
:1028A00019EB428715E73E87B77702009387071039
:1028B00063E3E70031A825459131238601828146F3
:1028C000014723ACD18223AEE182EFF00FBF11A00C
:1028D0000100B240224441018280411106C622C457
:1028E000000883C7C18289EBEF10202FAA872E88AA
:1028F00023ACF18223AE01832145093105472386AC
:10290000E1820100B240224441018280411106C6A9
:1029100022C40008238601828146014723ACD1826C
:1029200023AEE1822945D93E0100B2402244410153
:102930008280011122CE00102326A4FE11A00100E6
:102940008327C4FE1387F7FF2326E4FEEDFB010077
:10295000724405618280011106CE22CC00109307DB
:10296000000C2310F4FED1472324F4FE8D472322CC
:10297000F4FE930704FEBE85B7170140138507C018
:10298000EFD09FE793050004B7170140138507C0F8
:10299000EFE04F8C93050008B7170140138507C07F
:1029A000EFE04F8B13052003693793050008B71735
:1029B0000140138507C0EFE04F86AA87A5E3A30770
:1029C00004FEB1A093050004B7170140138507C0AA
:1029D000EFE06F8A13052003A93F93050004B717A2
:1029E0000140138507C0EFE0EF8613052003913700
:1029F00093050008B7170140138507C0EFE0EF818A
:102A0000AA8781EF8347F4FE8507A307F4FE0347F7
:102A1000F4FEBD47E3F8E7FA11A0010093050008B2
:102A2000B7170140138507C0EFE0EF8413052003BB
:102A3000093793050004B7170140138507C0EFE07D
:102A40006F8113052003F53593050008B717014082
:102A5000138507C0EFE00F8013052003D93D9307CE
:102A6000000C2310F4FEF1472324F4FE8D472322AB
:102A7000F4FE930704FEBE85B7170140138507C017
:102A8000EFD09FD70100F2406244056182800111BE
:102A900006CE22CC001093858184138501844121C8
:102AA000AA873E87238CE18483C7818563980710BA
:102AB000839701843E87839701843307F7029387C6
:102AC000018483972700BE8693870184839727001C
:102AD000B387F6023E979387018483974700BE86AB
:102AE0009387018483974700B387F602BA973E85A0
:102AF000EF305032AA873E85EF10F0142A8723A8C2
:102B0000E184839781843E87839781843307F7022A
:102B10009387818483972700BE86938781848397D8
:102B20002700B387F6023E979387818483974700F7
:102B3000BE869387818483974700B387F602BA974E
:102B40003E85EF30302DAA873E85EF10D00F2A87C3
:102B500023AAE18403A70185AD6783A5870D3A8584
:102B6000EF30003DAA8763CD070003A70185AD675D
:102B700083A5C70D3A85EF304033AA876357F00627
:102B800003A74185AD6783A5070E3A85EF30E03195
:102B9000AA87635CF0041305401FEF10A060A12812
:102BA0002326A4FEAD6783A5470E0325C4FEEF30A0
:102BB000C02FAA87635BF0020D3305A8693B93071A
:102BC000000837170140130707C0930600043716A3
:102BD0000140130606C0E1659385056A375500403C
:102BE00013050540EF009048212EBD390100F24049
:102BF000624405618280011106CE22CC00101307C9
:102C000004FE938581843A85192EAA876394070E62
:102C1000831704FE3E87831704FE3307F7028317EA
:102C200024FEBE86831724FEB387F6023E978317E1
:102C300044FEBE86831744FEB387F602BA973E85EC
:102C4000EF30501DAA873E85EF10E07F2324A4FEBD
:102C5000AD6783A5870E032584FEEF30602DAA871C
:102C600063D507009307000041A8831744FEB3070C
:102C7000F0403E85EF30101AAA87832584FE3E85FA
:102C8000EF209077AA872326F4FEAD6783A5870EF1
:102C90000325C4FEEF306021AA876357F000AD67BB
:102CA00083A7870E2326F4FEAD6783A5C70E0325F1
:102CB000C4FEEF30E027AA8763D70700AD6783A77C
:102CC000C70E2326F4FE0325C4FEEF10806BAA87EF
:102CD0003E85EF30702DAD6703A6070F83A6470F23
:102CE000EF20606FAA872E883E85C285EF30903630
:102CF000AA8719A0930700003E85F240624405614F
:102D00008280797106D622D40018AA87AE863287CF
:102D1000A30FF4FCB687230FF4FCBA87A30EF4FCD0
:102D2000E1679387076A2326F4FE11A88327C4FE70
:102D30001387F7FF2326E4FE99E385476DAAB705BD
:102D40000200B757004013850740EFE04FA1AA8764
:102D5000F1FF8545B757004013850740EFD03FFF8F
:102D6000E1679387076A2326F4FE0DA08327C4FE3C
:102D70001387F7FF2326E4FE91EB8545B757004004
:102D800013850740EFE0CF818547B5A2B707030061
:102D900093851700B757004013850740EFE0EF9386
:102DA000AA87E9D78347F4FD0146BE85B75700409F
:102DB00013850740EFE08F8DE1679387076A23262D
:102DC000F4FE85A0B707001093850740B757004071
:102DD00013850740EFE0AF98AA8785C7B7070010B3
:102DE00093850740B757004013850740EFE0AF9F3A
:102DF0008545B757004013850740EFD07FFA8947D4
:102E0000DDA88327C4FE1387F7FF2326E4FE91EB9A
:102E10008545B757004013850740EFD07FF88547B9
:102E2000D9A8B707070093852708B757004013852F
:102E30000740EFE08F8AAA87D1D78347E4FDBE859C
:102E4000B757004013850740EFD0DFFFE167938756
:102E5000076A2326F4FE0DA08327C4FE1387F7FF1D
:102E60002326E4FE91EB8545B757004013850740C4
:102E7000EFD01FF3854741A0B707070093854708A8
:102E8000B757004013850740EFE02F85AA87E9D7A1
:102E90008347D4FDBE85B757004013850740EFD068
:102EA0007FFAE1679387076A2326F4FE0DA0832744
:102EB000C4FE1387F7FF2326E4FE91EB8545B75741
:102EC000004013850740EFD0BFED85472DA0B70721
:102ED000070093854708B757004013850740EFD098
:102EE000DFFFAA87E9D78545B7570040138507401C
:102EF000EFD01FEB81473E85B2502254456182805E
:102F0000411106C622C4000801469305B006130508
:102F1000000DC53B0100B24022444101828039715D
:102F200006DE22DC26DA80002326A4FC2324B4FC5F
:102F3000E1679387076A2326F4FE11A88327C4FE5E
:102F40001387F7FF2326E4FE99E3854709A9B70510
:102F50000200B757004013850740EFE04F80AA8773
:102F6000F1FF8545B757004013850740EFD03FDE9E
:102F7000E1679387076A2326F4FE0DA08327C4FE2A
:102F80001387F7FF2326E4FE91EB8545B7570040F2
:102F900013850740EFD0DFE08547D1A6B7070300D0
:102FA00093851700B757004013850740EFD0FFF215
:102FB000AA87E9D701469305000DB757004013854E
:102FC0000740EFD0BFECE1679387076A2326F4FE42
:102FD00085A0B707001093850740B75700401385B9
:102FE0000740EFD0DFF7AA8785C7B70700109385A2
:102FF0000740B757004013850740EFD0DFFE8545F7
:10300000B757004013850740EFD09FD9894781AE5D
:103010008327C4FE1387F7FF2326E4FE91EB854543
:10302000B757004013850740EFD09FD7854705AEBF
:10303000B707070093852708B75700401385074057
:10304000EFD0BFE9AA87D1D79305B003B7570040A7
:1030500013850740EFD01FDFE1679387076A2326B8
:10306000F4FE0DA08327C4FE1387F7FF2326E4FE9A
:1030700091EB8545B757004013850740EFD05FD2ED
:103080008547F1ACB707070093854708B75700405D
:1030900013850740EFD07FE4AA87E9D78545B75766
:1030A000004013850740EFD09FCAE1679387076A06
:1030B0002326F4FE0DA08327C4FE1387F7FF2326E3
:1030C000E4FE91EB8545B757004013850740EFD0EC
:1030D0003FCD854769A4B707030093851700B7570D
:1030E000004013850740EFD05FDFAA87E9D7054688
:1030F0009305000DB757004013850740EFD01FD947
:10310000E1679387076A2326F4FE85A0B7070010BE
:1031100093850740B757004013850740EFD03FE441
:10312000AA8785C7B707001093850740B7570040A7
:1031300013850740EFD03FEB8545B7570040138517
:103140000740EFD0FFC5894719AC8327C4FE13871A
:10315000F7FF2326E4FE91EB8545B7570040138522
:103160000740EFD0FFC38547DDAAB707030093856B
:103170002700B757004013850740EFD01FD6AA8716
:10318000D1D78545B757004013850740EFD07FC69C
:10319000A30504FE51A8E1679387076A2326F4FE7E
:1031A0000DA08327C4FE1387F7FF2326E4FE91EBCF
:1031B0008545B757004013850740EFD07FBE854750
:1031C00079AAB707030093850704B7570040138512
:1031D0000740EFD09FD0AA87E9D78344B4FEB75702
:1031E000004013850740EFD07FC8AA873E8793072A
:1031F00004FFA6972386E7FE0347B4FEB14763109A
:10320000F7028145B757004013850740EFD07FBED6
:103210008545B757004013850740EFD07FB88347F7
:10322000B4FE8507A305F4FE0347B4FEB147E3F4FB
:10323000E7F6E1679387076A2326F4FE0DA083274C
:10324000C4FE1387F7FF2326E4FE91EB8545B757AD
:10325000004013850740EFD0BFB4854709A2B707E8
:10326000030093850704B757004013850740EFD04C
:10327000DFC6AA87E9D7B757004013850740EFD0CC
:10328000FFBEAA87A304F4FE8347C4FDA2071397D9
:10329000070141878347D4FDC207C187D98F1397A0
:1032A000070141878327C4FC9AA38347E4FDA20753
:1032B00093960701C1868347F4FD13970701418761
:1032C0008327C4FC8907558F420741879AA3834708
:1032D00004FEA20793960701C186834714FE139745
:1032E000070141878327C4FC9107558F4207418717
:1032F0009AA3834744FEA207139707014187834798
:1033000054FEC207C187D98F1397070141878327CE
:1033100084FC9AA3834764FEA20793960701C186A3
:10332000834774FE139707014187832784FC89072D
:10333000558F420741879AA3834784FEA20793963D
:103340000701C186834794FE1397070141878327AE
:1033500084FC9107558F420741879AA381473E8598
:10336000F2506254D25421618280797106D622D4FF
:1033700026D20018232EA4FC232CB4FC232AC4FC40
:103380002328D4FC8325C4FD0325C4FDEF2010436E
:10339000AA87BE84832584FD032584FDEF20104287
:1033A000AA87BE852685EF20804EAA873E85EF102E
:1033B00080092A87832704FD98C38325C4FD03253C
:1033C00084FDEF1020082326A4FEAD6783A5870F98
:1033D0000325C4FEEF20903EAA873E87AD6783A5F4
:1033E000C70F3A85EF205001AA873E87832744FD07
:1033F00098C3832744FD9C43930500003E85EF203E
:103400003033AA8763C3070039A8832744FD984354
:10341000AD6783A507103A85EF206047AA873E87EE
:10342000832744FD98C30100B25022549254456151
:103430008280797106D622D40018232EA4FC83271B
:10344000C4FD85079C23E207E18793F7F70F9D836F
:10345000A307F4FE8327C4FD85079C23A2071397C7
:1034600007014187A167938707F0F98F1397070139
:1034700041878327C4FD9C23C207C187D98FC20718
:10348000C1872316F4FE8357C4FE3E85EF30E02447
:103490002A87AD6783A547103A85EF203032AA8787
:1034A0002324F4FE8347F4FE81C7832784FE31A0E2
:1034B000032784FEB7070080B98F3E85B25022549F
:1034C00045618280797106D622D426D20018232E37
:1034D000A4FC8327C4FD85079C23E207E18793F7BB
:1034E000F70F9D83A307F4FE8327C4FD85079C2364
:1034F000A207139707014187A167938707F0F98F08
:103500001397070141878327C4FD9C23C207C18706
:10351000D98FC207C1872316F4FE8347F4FE89C7FB
:10352000AD6783A4871021A0AD6783A4C71083571C
:10353000C4FE3E85EF30601AAA87BE852685EF203F
:10354000F027AA873E85B25022549254456182806A
:10355000797106D622D40018232EA4FC8327C4FD3B
:1035600085079C23A2071397070141878327C4FD82
:103570009C23C207C187D98FC207C1872317F4FED6
:103580008357E4FE3E85EF304015AA873E85B25052
:10359000225445618280797106D622D40018232EE8
:1035A000A4FC232CB4FC8327C4FD98239307A00A12
:1035B0006316F7028327C4FD850798239307F00F4E
:1035C000631EF7008327C4FD890798238D4763177F
:1035D000F7008327C4FD8D079C2399C3814715A25B
:1035E0008327C4FDF107982393075005631AF7005A
:1035F0008327C4FDF50798239307C00C6304F700E5
:10360000814701A2232604FE15A08327C4FE0327B9
:10361000C4FDBA979823832684FD8327C4FEB697FA
:1036200098A38327C4FE85072326F4FE0327C4FE40
:103630008D47E3DCE7FC232404FE51A0832784FEAE
:103640008E0791073E878327C4FDBA972320F4FE97
:10365000032504FEF93BAA86032784FD832784FE05
:103660009207BA97D4C3832704FE89073E85D133D6
:10367000AA86032784FD832784FE9207BA9794C7FE
:10368000832704FE91073E85353DAA86032784FDE6
:10369000832784FE9207BA97D4C7832704FE99072D
:1036A0003E857D35AA86032784FD832784FE920705
:1036B000BA9794CB832784FE85072324F4FE03273F
:1036C00084FE8947E3DCE7F6232204FE2DA083274E
:1036D00044FEF1073E878327C4FDBA9798238326CB
:1036E00084FD832744FEB697238AE702832744FE9E
:1036F00085072322F4FE032744FE8547E3D9E7FC30
:1037000085473E85B250225445618280011106CE24
:1037100022CC001083C7A1859DCFA30704FE25A05E
:103720000347F4FEB707002093878703BA979C23CB
:10373000BE85B74701401385078065298347F4FE9E
:103740008507A307F4FE0347F4FEAD47E3FAE7FC61
:10375000238D018481A0230704FE25A00347E4FEF6
:10376000B707002093874704BA979C23BE85B747C5
:10377000014013850780B5298347E4FE85072307A9
:10378000F4FE0347E4FEAD47E3FAE7FC0547238D6B
:10379000E1840100F240624405618280411106C665
:1037A00022C40008854591671385D703EFD05FCF0A
:1037B0008545B7077E0013851700EFD0DFD20100E3
:1037C000B2402244410182805D7186C6A2C4800855
:1037D0002326A4FC2324B4FC2322C4FC232EE4FAD5
:1037E0003E87B6872311F4FCBA872310F4FC835775
:1037F00024FC231AF4FCE147232EF4FC8D47232CF0
:10380000F4FC930744FDBE85032544FCEFC0DFFEB6
:10381000835704FC231AF4FC9147232EF4FC9307EE
:1038200044FDBE850325C4FBEFC01FFD832784FC38
:103830002320F4FE231204FE231304FE231404FEAB
:10384000231604FEB1472315F4FE930704FEBE853C
:103850000325C4FCEFD01FF985450325C4FCEFE028
:10386000AF930100B6402644616182805D7186C6D7
:10387000A2C480082326A4FC2324B4FC2322C4FC75
:10388000232EE4FA3E87B6872311F4FCBA8723106F
:10389000F4FC835724FC2312F4FEF1472326F4FEA4
:1038A0008D472324F4FE930744FEBE85032544FC84
:1038B000EFC09FF4835704FC2312F4FE930744FEE9
:1038C000BE850325C4FBEFC03FF3832784FC232A76
:1038D000F4FC231C04FCF177FD17231DF4FC231ECC
:1038E00004FC93070040231FF4FC91672310F4FEAF
:1038F000930744FDBE850325C4FCEFD06F9D85452D
:103900000325C4FCEFD0AFBF0100B640264461617F
:103910008280797106D622D40018232EA4FCAE87AB
:10392000232AC4FC231DF4FC8357A4FD2312F4FEB8
:10393000832744FDC207C1832314F4FE231504FE2C
:10394000231304FE930744FEBE850325C4FDEFD078
:10395000FFBD85450325C4FDEFD0DFD30100B25084
:10396000225445618280011122CE001093055052ED
:10397000B747014013850780EFE0CF9FAA87C1CBEF
:10398000B747014013850780EFE08F95AA87A3070B
:10399000F4FE83C7B18593F7F70F8DEB0347F4FE71
:1039A0009307A00A6315F70683C7B18593F7F70F4E
:1039B000138717009376F70FA38DD1843E879387E3
:1039C000418BBA970347F4FE98A391A083C7B185B2
:1039D00013F7F70FF54763ECE70283C7B18593F759
:1039E000F70F138717009376F70FA38DD1843E87C7
:1039F0009387418BBA970347F4FE98A383C7B18599
:103A000013F7F70FF9476314F700A38D01849305AB
:103A10005052B747014013850780EFE04FA50100E2
:103A20007244056173002030011122CE001093050D
:103A30005052B747004013850740EFE0AF93AA8785
:103A4000ADCBB747004013850740EFE06F89AA87E9
:103A5000A307F4FE8347F4FE19476362F704139744
:103A60002700AD679387C77EBA979C438287054737
:103A7000238EE1843DA00947238EE1841DA00D47DC
:103A8000238EE18439A81147238EE18419A81547B4
:103A9000238EE18439A01947238EE18419A0238E57
:103AA000018493055052B747004013850740EFE06B
:103AB0000F9C01007244056173002030011122CE79
:103AC000001093055052B7570040138507C0EFE030
:103AD0006F8AAA87A1CFB7570040138507C0EFE0D0
:103AE0002F80AA87A307F4FE0347F4FE85476310DF
:103AF000F7029307800873B007800F100000054796
:103B0000A38CE1849307800873A0078001A8034772
:103B1000F4FE89476314F700EFE05FDF930550522E
:103B2000B7570040138507C0EFE06F94A145B75722
:103B30000040138507C0EFD0FFFCAA8781CBA145C9
:103B4000B7570040138507C0EFE00F8001007244B3
:103B5000056173002030411122C6000885453705F4
:103B60000040EFD0BFBEAA87B9CF03A8418683A784
:103B7000018685450146B386B70036853335F500A5
:103B80003307C800B307E5003E87B6873A8823A00D
:103B9000F18623A2018703C7918585476315F70244
:103BA000EFF0DFB6A38C018483C7A18589E7314597
:103BB000EFE0DF9409A803C7A18585476315F700E7
:103BC0003545EFE0BF93854537050040EFD0DFBEB8
:103BD00001003244410173002030411122C6000827
:103BE00003A8418683A701863E85C28532444101F0
:103BF0008280011106CE22CC00102326A4FEAE87BF
:103C0000A305F4FE0100930500080325C4FEEFD0D0
:103C10007FEFAA87EDDB8347B4FEC207C183BE8571
:103C20000325C4FEEFD01FE90100F24062440561A4
:103C30008280011106CE22CC00102326A4FE23246C
:103C4000B4FE05A0832784FE8387070093F7F70F50
:103C5000BE850325C4FE713F832784FE8507232488
:103C6000F4FE832784FE83870700E9FF0100F2400A
:103C7000624405618280011106CE22CC0010EFF073
:103C8000FFB1232404FE232604FE1306F00E930541
:103C9000700237050040EFF0DFC705468545370560
:103CA0000040EFD03FA49307C0022304F4FE9147E5
:103CB000A304F4FE230504FE85472326F4FE9307A0
:103CC00084FE3E85EFD0EFB79307004037170140E1
:103CD000130707809306002037160140130606805D
:103CE000B7F503009385058037450140130505802E
:103CF000EFF09FAD054693055052B747014013853D
:103D00000780EFD0FFCE930750032304F4FEA304F3
:103D100004FE230504FE85472326F4FE930784FE54
:103D20003E85EFD00FB2A147371701401307078038
:103D300091463716014013060680F16593850520EC
:103D40003745004013050540EFF01FA805469305D1
:103D50005052B747004013850740EFD07FC9930703
:103D600060032304F4FE8947A304F4FE230504FE44
:103D700085472326F4FE930784FE3E85EFD06FAC83
:103D800085679387078037170140930600403716F1
:103D90000140F1659385052037550040130505C0A6
:103DA000EFF09FA2054693055052B7570040138588
:103DB00007C0EFD0FFC3930740042304F4FE8D47F0
:103DC000A304F4FE230504FE85472326F4FE93078F
:103DD00084FE3E85EFD0EFA69147371701401307C9
:103DE0000740856637160140F165938505203755F4
:103DF0000040EFF07F9D930700083717014013073D
:103E000007C09306000437160140130606C0E1659B
:103E10009385056A3755004013050540EFF01FA54F
:103E20009307800873A00780EFF08F8DEFE06F9D00
:103E3000EFE08FBAEFE0EFF30100F240624405617A
:103E40008280411122C60008010032444101828073
:103E5000797106D622D44AD24ED052CE56CC001812
:103E6000B7070020938507051385418BEFF0AFF26C
:103E700083C7A185CDEBB707002093870705DC43F7
:103E80003E85EF207012AA872E883E87C287AD66D6
:103E900013860611C1451385418DEF30206AB7079F
:103EA0000020938707059C473E85EF20F00FAA87E7
:103EB0002E883E87C287AD6613864612C14513859C
:103EC000418EEF30A067B707002093870705DC47D6
:103ED0003E85EF20700DAA872E883E87C287AD668B
:103EE00013868613C1451385418FEF302065B707D0
:103EF0000020938707059C4B3E85EF20F00AAA8798
:103F00002E883E87C287AD661386C614C1451385C9
:103F10004190EF30A062AD67138687158545054552
:103F2000EFE0CFA4ADAA03C7A18585476319F716B3
:103F3000B707002093870705DC433E85EF20D006B6
:103F40002A89AE89B707002093870705DC4B3E8599
:103F5000EF2090052A8AAE8AB707002093870705CD
:103F6000DC533E85EF205004AA872E883EC042C213
:103F70005288D6884A87CE87AD661386C615C14556
:103F80001385418DEF30805BB707002093870705CD
:103F90009C473E85EF2050012A89AE89B707002053
:103FA000938707059C4F3E85EF2010002A8AAE8A32
:103FB000B7070020938707059C573E85EF20C07EFA
:103FC000AA872E883EC042C25288D6884A87CE87AA
:103FD000AD6613864617C1451385418EEF300056F6
:103FE000B707002093870705DC473E85EF20C07B9D
:103FF0002A89AE89B707002093870705DC4F3E85E5
:10400000EF20807A2A8AAE8AB707002093870705B7
:10401000DC573E85EF204079AA872E883EC042C2F9
:104020005288D6884A87CE87AD661386C618C145A2
:104030001385418FEF308050B70700209387070525
:104040009C4B3E85EF2040762A89AE89B707002039
:10405000938707059C533E85EF2000752A8AAE8A18
:10406000B7070020938707059C5B3E85EF20C07350
:10407000AA872E883EC042C25288D6884A87CE87F9
:10408000AD661386461AC14513854190EF30004B4B
:10409000AD671386C71B85450545EFE02F8D138659
:1040A000418D85450945EFE06F8C1386418E85452E
:1040B0000D45EFE0AF8B1386418F85451145EFE04D
:1040C000EF8AB707002093870705D843B70700207A
:1040D000938707058C47B707002093860702B70729
:1040E00000201386C7023A85EFF02FA8B7070020FB
:1040F00093870705D84BB7070020938707058C4F98
:10410000B707002093864702B707002013860703EE
:104110003A85EFF08FA5B707002093870705D8539E
:10412000B7070020938707058C57B70700209386B1
:104130008702B7070020138647033A85EFF0EFA206
:10414000EFE0AFC7EFE0BF94EFE0CF9F0100B250C8
:10415000225412598259724AE24A456182804111C1
:1041600022C60008B707002003A78725B7177A00E3
:1041700093870720B357F70213F7F70F2384E186DD
:1041800083C781861397070141839307803EB30756
:10419000F7021397070141832395E186010032441A
:1041A00041018280797122D60018232EA4FC37F7B2
:1041B00000E0544337F700E0F99A54C303D7A186CF
:1041C000BA860327C4FD3307D7022326E4FE37F758
:1041D00000E08326C4FEB68701481CCB232A0701D2
:1041E000B7F700E09843B7F700E01367070198C3FB
:1041F000B7F700E09843B7F700E01367170298C3DA
:104200000100B7F700E0DC4313F717008547E31A16
:10421000F7FEB7F700E09843B7F700E0799B98C343
:104220000100325445618280397106DE22DC800053
:104230002326A4FC8545916713854700EFD04FA640
:10424000930700202312F4FE8D472324F4FEE14758
:104250002326F4FE930744FEBE85B717014013855D
:104260000780EFC06FD98327C4FC232AF4FC231CEA
:1042700004FC231D04FC231E04FC231004FEA147A0
:10428000231FF4FC930744FDBE85B7470140138507
:104290000780EFD02FD58545B747014013850780AC
:1042A000EFD08FEF0100F25062542161828079716A
:1042B00006D622D40018232EA4FC232CB4FC232AD7
:1042C000C4FC232604FE232604FE91A001009305CE
:1042D0000004B747014013850780EFD0BF82AA874B
:1042E000FDD7832784FD13871700232CE4FC8387E5
:1042F0000700C207C183BE85B74701401385078009
:10430000EFD04FFB8327C4FE85072326F4FE032747
:10431000C4FE832744FDE34BF7FA832744FD3E8523
:10432000B250225445618280011122CE0010232612
:10433000A4FE03A701818327C4FE3E979387819142
:10434000636DF70003A701818327C4FE3E97B787FB
:1043500000209387078063F4E700FD5739A803A77F
:1043600001818327C4FE3E9723A8E18003A7018132
:104370008327C4FEB307F040BA973E8572440561B7
:104380008280397122DC26DA4AD806DE138941811F
:104390002A84BD2203270900FD57AA846303F7027C
:1043A000A2852285EF20402309ED2285EF0010270A
:1043B00097770000938787458C43EF10102F634950
:1043C000A000F250625426854259D2542161828065
:1043D00085473EC4228597770000938767433EC692
:1043E00002D4EF20603C2A87177500001305C576BC
:1043F0003ACC3AC82ECE2ECAEF00E0780327090047
:104400002AD02ED289476304F7022800EF00607794
:1044100019CDA2579DE302559255EF20A043F250CB
:104420006254AA8426854259D25421618280EF20A9
:10443000E05F930710021CC1E9BFEF20205FA25785
:104440001CC1D1BFC1A9397122DC26DA4AD806DEE7
:104450002A84EF004065938741818443FD572A8970
:10446000638EF400A2852285EF20001701E99305F1
:1044700000002285EF10D02B63490500F2506254F2
:104480004A85D25442592161828085473EC42285A3
:1044900097770000938747383EC602D4EF20C0309C
:1044A0002ACC2ECE2AC82ECA9DCC01468146328502
:1044B000B685EF0010172AD02ED289476397F402F1
:1044C000EF20C056930710021CC1A2578DE702557A
:1044D0009255EF202038F25062542A894A85D254EE
:1044E00042592161828002D002D22800EF00606927
:1044F00061D9A257E9DFEF206053A2571CC1C1BFA9
:104500009317150085833707803FAA86638FE704DA
:10451000011122CC06CE26CA4AC84EC652C42A84ED
:104520006347F7023707003F63D6E70437070023E6
:10453000634AF718F2406244977700009387872E0A
:104540008843D2444249B249224A05618280AA8501
:10455000EF101050AA85EF10206AF2406244D24456
:104560004249B249224A0561828013050000635D19
:10457000D0388280634605269779000093890929FF
:1045800003A50900B685FD74EF10904C97770000E5
:104590009387872C8C43EF1070222A8429239777E6
:1045A0000000938767288C432A892285EF10102109
:1045B00097770000938787278C43B3F42401EF108B
:1045C000002DA285EF10901F977700009387472654
:1045D0008C43EF10F047A285EF10501E9777000034
:1045E000938747258C43EF10802AA285EF10101D7A
:1045F00097770000938747248C43EF107045A2857E
:10460000EF10D01B97770000938747238C43EF1060
:104610000028A285EF10901A977700009387472211
:104620008C432A8A2285EF107019977700009387B0
:1046300067218C43EF10D041A285EF103018977797
:104640000000938767208C43EF106024A285EF1051
:10465000F016977700009387671F8C43EF10503F49
:10466000A285EF10B01583A50900EF104022AA859E
:104670005285EF106058CA85EF105014AA89A6859C
:104680002685EF10B013AA852285EF10703C2A848E
:10469000A6854A85EF10A01FAA852285EF10C05578
:1046A000AA854E85EF10A01EA685EF10401EAA8594
:1046B000EF10E01DF2406244D2444249B249224A1E
:1046C00005618280AA85EF10700F977700009387AD
:1046D000A7158C43AA84EF10700E9777000093877C
:1046E000E7148C43EF10A01AA685EF10300D9777D2
:1046F00000009387E7138C43EF109035A685EF10E9
:10470000F00B977700009387E7128C43EF10201887
:10471000A685EF10B00A977700009387E7118C43C6
:10472000EF101033A685EF1070099777000093877C
:10473000E7108C43EF10A015A685EF10300897778F
:1047400000009387E70F8C432A892685EF10100716
:10475000977700009387070F8C43EF10702FA68583
:10476000EF10D005977700009387070E8C43EF106A
:104770000012A685EF109004977700009387070D2D
:104780008C43EF10F02CA685EF10500397770000B4
:104790009387C7078C43EF10800FAA854A85EF10D7
:1047A000A045A285EF109001977700009387470AF4
:1047B000AA858843EF10D029AA852285EF105029B9
:1047C0009777000093870709AA858843EF10502840
:1047D000F2406244D2444249B249224A0561828091
:1047E000177900001309890283250900EF10200AB8
:1047F00097770000938747068C43EF10207C9777CC
:104800000000938767028C432A84EF10207B977700
:1048100000009387A7018C43EF106007A285EF107B
:10482000E079977700009387A7008C43EF10502220
:10483000A285EF10A078977700009387A7FF8C439D
:10484000EF10E004A285EF10607797770000938760
:10485000A7FE8C43EF10D01FA285EF10207697772C
:1048600000009387A7FD8C43EF106002A285EF1034
:10487000E074AA892285052C97770000938747FC6E
:104880008C43AA842285EF1060739777000093878A
:1048900067FB8C43EF10D01BA285EF102072977737
:1048A0000000938767FA8C43EF00707EA285EF10BB
:1048B000E07097770000938767F98C43EF105019E9
:1048C000A285EF10A06F83250900EF00507CAA8518
:1048D0004E85EF106032A685EF10406E977700008E
:1048E000938707F78C43EF10B016A685EF00307A58
:1048F000AA85EF00D07997770000938727F6AA85DD
:104900008843EF10F01491B997770000938747F12F
:1049100088438280B7070080411193C7F7FF2E8735
:1049200006C622C4FD8D3706807FAA866340B60482
:10493000E98F2A83634CF602B708803F6300170FA4
:104940001354E74109887D81498C8DEB8947630EBB
:10495000F4088D473685631FF400B24022449777F0
:1049600000009387E7EF884341018280B6853A854E
:10497000EF00F071B240224441018280B9CD638CD6
:10498000C506638CC7048D8FDD871306C003634B98
:10499000F60863580700130640FC1305000063C8BF
:1049A000C700BA853685EF1020258D29E522854779
:1049B0006305F40C89476302F40A4DDC9777000025
:1049C0009387C7EB8C43EF00906C97770000938739
:1049D00027E58C43EF10D00771BF634A0306977732
:1049E0000000938727E4884371B797770000938787
:1049F00027E3884341B7638DB7028947E307F4FE95
:104A00008D47E30CF4F4854713050000E314F4F636
:104A100097770000938707E58843A9BF2244B240F7
:104A200041018DAA977700009387C7DF884341B77C
:104A300089476304F4068D47630BF40485476302DA
:104A4000F404977700009387E7E2884325B79777C8
:104A50000000938767E1884331BF97770000938711
:104A6000E7E18C43EF00B06297770000938747DB64
:104A7000AA858843EF10C07DF5BDB70700803D8D46
:104A8000D5BD97770000938727DF8843E5B59777F3
:104A900000009387E7DD8843F1BD97770000938797
:104AA000E7DC8843C1BD41119317150022C406C637
:104AB00085833707807F2A84AA8563F8E708C9C3FE
:104AC000AA876342050A698F9356754105E3131758
:104AD00085006345070A014711A032878607939531
:104AE000870013061700E3DA05FE998E370780006A
:104AF0001306F7FFF18F938616F85D8F13F61600F5
:104B00009317170031EE13D816400145E54681454D
:104B1000370700013386E500FD1663C6C700B305FD
:104B2000E600918F3A9586070583EDF699C3050552
:104B300079990585B705003FAA9593167801B69532
:104B4000B24022442E8541018280EF102047A28589
:104B5000EF00F053B2402244AA852E8541018280A5
:104B6000931727004DB7EF10A06EAA85EF10C0086D
:104B7000B2402244AA852E85410182807D57998EBC
:104B8000B5B701458280977700009387A7CF884308
:104B9000CC438280011122CC1314150026CA4EC6C4
:104BA00006CE4AC852C40580B7078050AA84AA8995
:104BB0006346F402B707807F63C78716635CA0185B
:104BC00097770000938707C69C43F2406244D24423
:104BD0004249B249224A3E8505618280B707E03EDC
:104BE0006355F418B70700316344F4147D59A68562
:104BF0002685EF10A03CAA852A8AEF10203C9777E3
:104C000000009387A7C98C432A84EF10203B977735
:104C100000009387E7C88C43EF007047A285EF1030
:104C2000E039977700009387E7C78C43EF00304661
:104C3000A285EF10A038977700009387E7C68C43D2
:104C4000EF00F044A285EF1060379777000093875C
:104C5000E7C58C43EF00B043A285EF10203697776D
:104C600000009387E7C48C43EF007042D285EF10B9
:104C7000E034977700009387E7C38C432A8A228524
:104C8000EF10C03397770000938707C38C43EF1072
:104C9000205CA285EF10803297770000938707C2CF
:104CA0008C43EF10E05AA285EF1040319777000057
:104CB000938707C18C43EF10A059A285EF100030F5
:104CC00097770000938707C08C43EF106058A28548
:104CD000EF10C02EAA855285EF00703BA685EF101D
:104CE000E02DFD57AA85630DF9060A0997770000A4
:104CF000938787BECA978C43977700009387C7BC7A
:104D00003E99EF10E054A685EF108054AA85032544
:104D10000900EF10E053AA87E3D909EA37070080BA
:104D2000B347A7005DB5AA85EF007036AA8771BDAD
:104D300097770000938787B58C43EF0050359777BE
:104D400000009387A7AC8C43EF102016A687E35F83
:104D5000A0E8A5BD97770000938707B19C43B5B540
:104D60002685EF10E04EAA878DB54D28B707983FEE
:104D7000AA846350F404B707303F6355F408AA854A
:104D8000EF00F03097770000938747A88C430149E4
:104D9000EF10004C97770000938787AF8C432A84ED
:104DA0002685EF00D02EAA852285EF00F064AA8424
:104DB0003DBDB7071C40635CF40217740000130488
:104DC00064AD0C400949EF10A0480C402A8A2685A2
:104DD000EF10C01E97770000938747A38C43EF0026
:104DE000102BAA855285EF003061AA8409B5977708
:104DF0000000938767AA8843A6850D49EF00D05F1E
:104E0000AA84F5B317740000130444A00C400549AC
:104E1000EF1000442A8A0C402685D1B7060505818B
:104E20008280397193D7450122DC4AD856D22A892B
:104E30001394C50006DE26DA4ED652D45AD05ECE82
:104E400013F5F77F318093DAF501630B05109307B3
:104E5000F07F630BF514135AD9010E0433648A00F2
:104E6000370A8000336A4401131B3900930415C0CC
:104E70000144814B13D846011399C6001378F87F7B
:104E8000B2881359C90093D9F601630E0808930735
:104E9000F07F6300F8041357D6010E093369270128
:104EA000130818C0B70780003367F900931836005D
:104EB000B38404418145BD4733C83A0163E4871A8E
:104EC00097770000938747A20A043E9410403E96CD
:104ED00002863367C9009384148063120710136439
:104EE000240081488945C1BF1306F07F81470147EF
:104EF000B207F25062545206B1837E08D18FB3E7F5
:104F00000701D2544259B259225A925A025BF24BCB
:104F10003A85BE852161828001481306F07FB7077C
:104F200008000147F1B73367C9004DC7630809306E
:104F30004A8532C4EF10B0282246130755FFF547C3
:104F4000930685FF998F3319D900B357F60033E7DD
:104F50002701B318D60026959304353F8145A1BF9C
:104F6000336A240163030A0636C632C46306042A80
:104F70002285EF10D0242246B246AA84130755FF9B
:104F8000754A138B84FF330AEA4033146401335AA1
:104F90004901336A8A00331B69011305D0C0B30489
:104FA00095400144814BF9B5336A240163180A0026
:104FB0002144014B9304F07F894B6DBD228A4A8BBB
:104FC00031449304F07F8D4B75B51144014B8144FE
:104FD000854B4DB51364140081488545E9BD1364C4
:104FE00034004A878D45C1BD630A052E8547898FE8
:104FF0009306800363DDF632014681470147CDBD4C
:10500000CE868947638DF53A8D47E387F5F085476E
:105010003688E383F5FE1385F43FE357A0FC93F74E
:1050200078006396072893D638009317770063D8E3
:105030000700B70700FFFD177D8F13850440930716
:10504000E07FE3C3A7EA1316D70193179700B18354
:105050003367D6001376F57F61BDD6865287DA882E
:10506000DE8545B763614723630DEA20DA86FD14C8
:105070005284014B9317870013D388013363F300E5
:10508000935E0301B357D403131F0301135F0F0192
:1050900093D50601139E88003374D4033307FF02AF
:1050A0004204C18D63FBE5009A951386F7FF63EE1A
:1050B000652663FCE526F9179A95998D33D7D503B4
:1050C000C206C182B3F5D5033306EF02C205D58D02
:1050D00063FBC5009A959306F7FF63E6652463F4C6
:1050E000C52479179A95C20741645D8F9307F4FF31
:1050F0003375F70093580701935F0E01B377FE00F5
:10510000B302F502B386C540B383F80293D502011A
:105110003386AF021E962E963385F80363737600AE
:105120002295C168FD189355060133761601420693
:10513000B3F81201AA95469663E6B6126382B612D8
:105140003306CB408D8E333BCB00338B66411385CA
:10515000F43F630C6317B358DB0393550601337BAD
:10516000DB03B3061F03420B33EB6501637BDB00FC
:105170001A9B9385F8FF636D6B20637BDB20F91826
:105180001A9B330BDB40B356DB0342064182337B71
:10519000DB03330FDF02420B33666601637BE601FC
:1051A0001A969385F6FF6367661E6375E61FF91608
:1051B0001A96C208B3E8D8009395080193D2080163
:1051C000C181B38EF5023306E641B385BF0293D6A3
:1051D0000E01B387F202BE95AE96B38F5F0263F401
:1051E000F600C167BE9FC165FD1593D70601ED8E20
:1051F000C206B3FEBE00BE9FF696637FF6091A96FE
:105200009387F8FF6369661A6368F619630FF61BE4
:10521000BE8893E8180011B54A85EF10407A13074D
:105220005501F145930405022246B246E3DAE5D47E
:10523000130485FF331A8900014B85B3328532C4CC
:10524000EF10E07713075501F146AA8722461305B0
:105250000502E3D6E6CEE1173317F6008148E5B93B
:10526000E370CBEE729B3335CB011A95AA961305EA
:10527000F7FF6378D30263E6B6106382D5102A87FE
:10528000C1B5E3651BDF93551B009316FA01135458
:105290001A00CD8E7E0BF9BBE31DF6F7E38F06D621
:1052A000B9BFE31ED3FCE378CBFD2A8751BD93F74A
:1052B000F8009146E389D7D693B7C8FF9386480094
:1052C00093C717008D823E978DB381468547E34C87
:1052D000A0FEFD58E31C05D0930410C0854713853C
:1052E000E441B316A70033D6F8003395A800D18E59
:1052F0003335A000C98E13F676003357F70001CE80
:1053000093F7F60011466388C70093874600B3B64B
:10531000D7003697BE869317870063D807040546E3
:1053200081470147F1B636877DBBB28779B3FD4629
:10533000E3D7F6FA0556098E930600023356C700E6
:105340006388D7009387E443B317F700B3E8F80006
:10535000B3361001D18E13F67600814701CE93F754
:10536000F60011460147E392C7FA93179700131608
:10537000D701B18313D73600518F014695BEE37034
:10538000CBF0729B3335CB011A957917AA964DBB9A
:10539000AE88C5BBAE8631BD93171E0033BEC701B4
:1053A00072931A96F9183E8EE315F6E7E307DEC608
:1053B00093E818009DB1BE88E30AF6FF99BD3688D0
:1053C0001306F07F8147014725B6E367DEFCBE8800
:1053D000E310DEFE99B139714AD813D945014ED692
:1053E00052D456D29399C50006DE22DC26DA5AD072
:1053F0005ECE1379F97F2A8A93D9C90093DAF50131
:10540000630D090E9307F07F6306F9181354D50155
:105410008E09B36934013704800033E489009314A2
:105420003500130919C08149814B13D74601139ADE
:10543000C6001377F77FB285135ACA0013DBF60153
:10544000630B07109307F07F6303F7049357D601AC
:105450000E0A33EA4701130717C0B7078000B36786
:10546000FA00931536003A99814833C76A01BD4660
:105470003A851308190063E836171766000013060B
:10548000A64A8A09B29983A60900B2968286B367B2
:10549000CA001309F97F6399071293E9290081452E
:1054A0008948E1B701479307F07F3704080081443A
:1054B0003204D20731807E075D8C598CA285F25070
:1054C000625426854259D254B259225A925A025BEA
:1054D000F24B216182805A853E84AE84C68B894717
:1054E000638DFB0E8D47E38FFBFA85472A87639E0A
:1054F000FB3881470144814465BF33E4A90061C0A2
:1055000036C632C4638C092A4E85EF10404B2246C2
:10551000B246AA87130755FF7544938487FF198CF9
:10552000B399990033548A0033643401B3149A0058
:1055300013D746011309D0C0139AC6001377F77F1B
:105540003309F9408149814BB285135ACA0013DBF4
:10555000F601E31907EEB367CA00B1C7630F0A2269
:10556000528532C4EF10A04522462A87930655FF84
:10557000F547930587FF958F331ABA00B357F600A6
:10558000B3E74701B315B6003309E9401309D9C0A1
:105590008148E1BD33E4A90001ECA149814413092C
:1055A000F07F894B59B593E919008145854875BD50
:1055B0004E84AA84B1491309F07F8D4BBDB5914942
:1055C00081440149854B95B593E93900D2878D48CF
:1055D00069BD89475685E397FBF02A879307F07FDB
:1055E00001448144F1B5C16E1386FEFF93D60401D8
:1055F00013DE0501F18CF18D338695023383B602FB
:105600009358060133059E021A95AA98B382C603E1
:1056100063F36800F692C16F1383FFFF33F56700F1
:1056200093D30701B3F76800C207337366003E9354
:105630003306950293D80801B387A602135F0601CB
:10564000B3849302BE94FA94B38E760263F3F400AB
:10565000FE9E416A9307FAFF935F0401B376F4005C
:10566000B3F9F4007D8EC1803384D502C209338F33
:10567000D401B299CE98B307DE02935E0401B385DC
:10568000BF02AE97BE9E330EFE0363F3BE00529E72
:10569000C1679385F7FF33F6BE006D8C42062296F4
:1056A00093DE0E01B305D502769E3385AF0213D487
:1056B0000501B386D302AA96A296B38FF30363F3D0
:1056C000A600BE9F41657D15B3F7A600C2076D8D8C
:1056D000AA97B3855800B3B93501FA97B2953384C8
:1056E000370133B6C500B30EC4013385CE00333461
:1056F0003401B3B7E701C18F33BECE0113D4060125
:105700003336C5003E943366CE00939495003294B0
:105710007E94B3E46400260493567501B33490007C
:10572000DD8193179500CD8C558CDD8C931774001B
:1057300063DB070093D7140085889316F401DD8C92
:10574000D58C058042899307F93F6359F00893F699
:10575000740081CE93F6F40011466388C6009386E8
:105760004400B3B496002694B6849316740063D8AC
:105770000600B70700FFFD177D8C930709409306CD
:10578000E07F63CFF60E93D634009314D401260441
:10579000D58C318093F7F77F21BB328532C4EF106F
:1057A000002293065501F147130705022246E3D173
:1057B000D7DC6115B317A6008145F9B3EF1020209F
:1057C00013075501F145930705022246B246E3D57A
:1057D000E5D461153314AA00814499BB85469D8E9A
:1057E000B1E71309E941B3972401B3D4D4003319C5
:1057F0002401B337F000B3649900DD8C93F7740093
:10580000B356D40081CF93F7F40011466388C700E4
:1058100093874400B3B49700A696BE8493978600FE
:1058200063D8070485470144814459B113068003B6
:10583000E341D6CC7D46E356D6FA0556B307F6408B
:10584000930500023356F4006387B6001309E94359
:10585000B3172401DD8CB3349000D18C93F674001F
:10586000014499CA93F7F40011468146E392C7FABE
:10587000139496003180F6068D80D58C81470DB942
:105880009307F07F0144814425B142896DBD4111E8
:10589000370780007D1713D8750126C29354750110
:1058A0003373A70093F4F40FB376B7004AC01378AC
:1058B000F80F1359F50106C622C4FD819A87268583
:1058C0004A86131E3300939E3600B3880441630A50
:1058D000B90E6350100D630408149307F00F638B27
:1058E000F414B7070004B3EEFE00ED4763C11729B7
:1058F00093070002B3871741B397FE00B3D81E0188
:10590000B337F000B3E7F800B307FE401397570032
:10591000635E0718370400047D147D8C2285EF1028
:10592000000A6D15B317A4006348951A058D13047A
:10593000150013070002018F3397E7003337E000AB
:10594000B3D78700D98F814413F7770019C713F7AE
:10595000F70091466303D700910713975700635BE5
:10596000071485041307F00F4A866383E4169A0729
:10597000A58313F5F40FB2402244A60793147501D2
:1059800013D59700458D7E0692440249518D410101
:1059900082806399080A138714001377E70F63174F
:1059A000071463900422630D0E1EE3860EFCB307FA
:1059B000DE411397570063500722B387CE412E89EB
:1059C00061B7635C100B630E08089307F00F6383E5
:1059D000F406B7070004B3EEFE00ED4763C9171FD6
:1059E00093070002B3871741B397FE00B3D81E0197
:1059F000B337F000B3E7F800F297139757006357F7
:105A0000070A85041307F00F6384E40CB706007ED1
:105A100013D71700FD16858B758FD98F35B7638D1A
:105A20000E08FD18B307DE41E38208EE9307F00F7E
:105A3000E39DF4EA630D030801461305F00FB70771
:105A4000400015BF33079840EDE863020E147D1740
:105A5000630807189307F00F6319F80E2E89368331
:105A6000D1BF638B0E04FD18B307DE01E38708F88E
:105A70009307F00FE393F4F675BF63950808850468
:105A800013F7E40F6313071263170510630F0E1467
:105A9000E3830EEEB307DE0113975700814463578B
:105AA0000700370700FC7D17F98F854413F777004F
:105AB000E31F07E813D337009307F00FE38CF4F6E6
:105AC00093179300A58313F5F40F4A866DB54A86A4
:105AD0001305F00F814745B5370700FC7D17F98F97
